{
  "contractName": "Election",
  "abi": [
    {
      "inputs": [],
      "payable": false,
      "stateMutability": "nonpayable",
      "type": "constructor"
    },
    {
      "constant": true,
      "inputs": [
        {
          "internalType": "uint256",
          "name": "",
          "type": "uint256"
        }
      ],
      "name": "BODList",
      "outputs": [
        {
          "internalType": "uint256",
          "name": "duration",
          "type": "uint256"
        },
        {
          "internalType": "uint256",
          "name": "BW",
          "type": "uint256"
        },
        {
          "internalType": "address",
          "name": "BOD_addr",
          "type": "address"
        },
        {
          "internalType": "uint256",
          "name": "BOD_ID",
          "type": "uint256"
        }
      ],
      "payable": false,
      "stateMutability": "view",
      "type": "function"
    },
    {
      "constant": true,
      "inputs": [],
      "name": "seePlans",
      "outputs": [
        {
          "internalType": "string",
          "name": "",
          "type": "string"
        }
      ],
      "payable": false,
      "stateMutability": "view",
      "type": "function"
    },
    {
      "constant": true,
      "inputs": [
        {
          "internalType": "uint256",
          "name": "",
          "type": "uint256"
        }
      ],
      "name": "subList",
      "outputs": [
        {
          "internalType": "string",
          "name": "plan",
          "type": "string"
        },
        {
          "internalType": "address",
          "name": "subscriber_addr",
          "type": "address"
        },
        {
          "internalType": "uint256",
          "name": "subscriber_ID",
          "type": "uint256"
        }
      ],
      "payable": false,
      "stateMutability": "view",
      "type": "function"
    },
    {
      "constant": true,
      "inputs": [],
      "name": "subscriberCount",
      "outputs": [
        {
          "internalType": "uint256",
          "name": "",
          "type": "uint256"
        }
      ],
      "payable": false,
      "stateMutability": "view",
      "type": "function"
    },
    {
      "constant": false,
      "inputs": [
        {
          "internalType": "uint256",
          "name": "_usrID",
          "type": "uint256"
        },
        {
          "internalType": "string",
          "name": "_plan",
          "type": "string"
        }
      ],
      "name": "baseSub",
      "outputs": [],
      "payable": true,
      "stateMutability": "payable",
      "type": "function"
    },
    {
      "constant": false,
      "inputs": [
        {
          "internalType": "uint256",
          "name": "_BW",
          "type": "uint256"
        },
        {
          "internalType": "uint256",
          "name": "_Dur",
          "type": "uint256"
        },
        {
          "internalType": "uint256",
          "name": "_usrID",
          "type": "uint256"
        }
      ],
      "name": "bOdSub",
      "outputs": [],
      "payable": true,
      "stateMutability": "payable",
      "type": "function"
    }
  ],
  "bytecode": "0x608060405234801561001057600080fd5b506040518060400160405280600781526020017f4d6f6e74686c79000000000000000000000000000000000000000000000000008152506000908051906020019061005c929190610118565b506040518060400160405280600781526020017f20596561726c7900000000000000000000000000000000000000000000000000815250600190805190602001906100a8929190610118565b50673782dace9d9000006002819055506753444835ec5800006003819055506040518060400160405280601b81526020017f4d6f6e74686c792c20314554482c20596561726c792c2032455448000000000081525060049080519060200190610112929190610118565b506101bd565b828054600181600116156101000203166002900490600052602060002090601f016020900481019282601f1061015957805160ff1916838001178555610187565b82800160010185558215610187579182015b8281111561018657825182559160200191906001019061016b565b5b5090506101949190610198565b5090565b6101ba91905b808211156101b657600081600090555060010161019e565b5090565b90565b610934806101cc6000396000f3fe6080604052600436106100555760003560e01c80630816a30f1461005a578063210954451461011f57806346a878911461020d5780635eaf87d11461029d578063ef352bbe146102df578063f8d18a7b1461030a575b600080fd5b61011d6004803603604081101561007057600080fd5b81019080803590602001909291908035906020019064010000000081111561009757600080fd5b8201836020820111156100a957600080fd5b803590602001918460018302840111640100000000831117156100cb57600080fd5b91908080601f016020809104026020016040519081016040528093929190818152602001838380828437600081840152601f19601f82011690508083019250505050505050919291929050505061039a565b005b34801561012b57600080fd5b506101586004803603602081101561014257600080fd5b810190808035906020019092919050505061057a565b60405180806020018473ffffffffffffffffffffffffffffffffffffffff1673ffffffffffffffffffffffffffffffffffffffff168152602001838152602001828103825285818151815260200191508051906020019080838360005b838110156101d05780820151818401526020810190506101b5565b50505050905090810190601f1680156101fd5780820380516001836020036101000a031916815260200191505b5094505050505060405180910390f35b34801561021957600080fd5b5061022261065c565b6040518080602001828103825283818151815260200191508051906020019080838360005b83811015610262578082015181840152602081019050610247565b50505050905090810190601f16801561028f5780820380516001836020036101000a031916815260200191505b509250505060405180910390f35b6102dd600480360360608110156102b357600080fd5b810190808035906020019092919080359060200190929190803590602001909291905050506106fa565b005b3480156102eb57600080fd5b506102f4610804565b6040518082815260200191505060405180910390f35b34801561031657600080fd5b506103436004803603602081101561032d57600080fd5b810190808035906020019092919050505061080a565b604051808581526020018481526020018373ffffffffffffffffffffffffffffffffffffffff1673ffffffffffffffffffffffffffffffffffffffff16815260200182815260200194505050505060405180910390f35b600060405180828054600181600116156101000203166002900480156103f75780601f106103d55761010080835404028352918201916103f7565b820191906000526020600020905b8154815290600101906020018083116103e3575b50509150506040518091039020818051906020012014801561041a575060025434145b806104a157506001604051808280546001816001161561010002031660029004801561047d5780601f1061045b57610100808354040283529182019161047d565b820191906000526020600020905b815481529060010190602001808311610469575b5050915050604051809103902081805190602001201480156104a0575060035434145b5b6104aa57600080fd5b60056000815480929190600101919050555060405180606001604052808281526020013373ffffffffffffffffffffffffffffffffffffffff16815260200183815250600760006001600554038152602001908152602001600020600082015181600001908051906020019061052192919061085a565b5060208201518160010160006101000a81548173ffffffffffffffffffffffffffffffffffffffff021916908373ffffffffffffffffffffffffffffffffffffffff160217905550604082015181600201559050505050565b6007602052806000526040600020600091509050806000018054600181600116156101000203166002900480601f0160208091040260200160405190810160405280929190818152602001828054600181600116156101000203166002900480156106265780601f106105fb57610100808354040283529160200191610626565b820191906000526020600020905b81548152906001019060200180831161060957829003601f168201915b5050505050908060010160009054906101000a900473ffffffffffffffffffffffffffffffffffffffff16908060020154905083565b60048054600181600116156101000203166002900480601f0160208091040260200160405190810160405280929190818152602001828054600181600116156101000203166002900480156106f25780601f106106c7576101008083540402835291602001916106f2565b820191906000526020600020905b8154815290600101906020018083116106d557829003601f168201915b505050505081565b60008090505b60055481116107fe5781600760008381526020019081526020016000206002015414156107f15760066000815480929190600101919050555060405180608001604052808481526020018581526020013373ffffffffffffffffffffffffffffffffffffffff16815260200183815250600860006001600654038152602001908152602001600020600082015181600001556020820151816001015560408201518160020160006101000a81548173ffffffffffffffffffffffffffffffffffffffff021916908373ffffffffffffffffffffffffffffffffffffffff160217905550606082015181600301559050505b8080600101915050610700565b50505050565b60055481565b60086020528060005260406000206000915090508060000154908060010154908060020160009054906101000a900473ffffffffffffffffffffffffffffffffffffffff16908060030154905084565b828054600181600116156101000203166002900490600052602060002090601f016020900481019282601f1061089b57805160ff19168380011785556108c9565b828001600101855582156108c9579182015b828111156108c85782518255916020019190600101906108ad565b5b5090506108d691906108da565b5090565b6108fc91905b808211156108f85760008160009055506001016108e0565b5090565b9056fea265627a7a72315820ad3ed070bf948090535376c34dcb1c6b992695261ebbb46b868032d2e55c099064736f6c63430005100032",
  "source": "// SPDX-License-Identifier: LGPL-3.0-only\npragma solidity >=0.4.22 <0.9.0;\ncontract Election{\n\nstring plan_1;\nstring plan_2;\nuint256 feePlan_1;\nuint256 feePlan_2; \nstring public seePlans; \nuint256 public subscriberCount;    \nuint256 BODcount;  \n\n\n  //plans and charges\n    constructor()public {\n        plan_1 = \"Monthly\";\n        plan_2 = \" Yearly\";\n        feePlan_1 = 4000000000000000000; \n        feePlan_2 = 6000000000000000000; \n        seePlans = \"Monthly, 1ETH, Yearly, 2ETH\";\n        }\n    \n    //subscriber base\n        mapping (uint256 => subscription)public subList;\n    struct subscription {\n        string plan;\n        address subscriber_addr; \n        uint256 subscriber_ID;\n    }\n      //BOD base\n        mapping (uint256 => BOD)public BODList;\n    struct BOD {\n        uint256 duration;\n        uint256 BW;\n        address BOD_addr; \n        uint256 BOD_ID;\n    }\n\n  \n    //add subscriber and charge fee \n    function baseSub(uint256 _usrID, string memory _plan) payable public  {\n        require ((keccak256(bytes(_plan))==keccak256(bytes(plan_1))&& (msg.value==feePlan_1))||(keccak256(bytes(_plan))==keccak256(bytes(plan_2))&& (msg.value==feePlan_2)));\n        subscriberCount++;\n        subList[subscriberCount-1]=subscription(_plan, msg.sender,  _usrID);\n        }\n    \n    //BOD request and fee (free till Zokerates proof)\n    function bOdSub( uint256 _BW, uint256 _Dur, uint256 _usrID) payable public {\n        for (uint256 i=0; i<=subscriberCount; i++){\n        if (subList[i].subscriber_ID==_usrID){\n            BODcount++;\n            BODList[BODcount-1]=BOD(_Dur, _BW, msg.sender, _usrID);\n                }     \n            }\n        }\n}",
  "sourcePath": "/home/munim/dapp-uni/election/contracts/Election.sol",
  "compiler": {
    "name": "solc",
    "version": "0.5.16+commit.9c3226ce.Emscripten.clang"
  },
  "schemaVersion": "3.3.4",
  "updatedAt": "2021-03-06T20:25:06.810Z",
  "networkType": "ethereum",
  "devdoc": {
    "methods": {}
  },
  "userdoc": {
    "methods": {}
  }
}